:060000000A128A110C280F
:10000800FE00030EF1000A08F2000A128A1196286F
:100018000A128A110F280A128A11B8200A128A11A4
:10002800FA00F701F801F90183010A128A1164281C
:1000380001308316031788008901013083160313E2
:100048008500831203138501831603138801831225
:1000580003138801831603130F088F3940388F0064
:100068000F1410308700831203138701F0309405B2
:100078001412941683160313141794178312031378
:1000880093011F083F3940389F00831603131F123E
:100098009F12C330831203139F05831603139F1304
:1000A800831203131F140330F300F30B59288B1723
:1000B800831603130C17831203130C130B17080072
:1000C8000A128A111C200A128A11831203139F181C
:1000D8006E286F2870289F1485170430F5003D306E
:1000E800F400F40B7528F50B75287A28831203138E
:1000F80085137708930083160313141C8428852816
:100108007F280230F6004530F500A930F400F40BE2
:100118008B28F50B8B28F60B8B28922869280A1256
:100128008A110C28831203130C1F9B289C28AA28C9
:100138001F0CF000700C0F39003A031DA428A528E5
:10014800A9281E08F0007008F7000C138C1DAD28B4
:10015800AE28B128130888008C1172088A00710E25
:0A0168008300FE0E7E0E0900FF3436
:08400000FF3FFF3FFF3FFF3FC0
:04400E00D420FF3F7C
:00000001FF
