:060000000A128A110C280F
:10000800FE00030EF1000A08F2000A128A1179288C
:100018000A128A110F28F40183010A128A11AB28E7
:1000280001308316031788008901831603130F080C
:100038008F3940388F000F14213085008312031345
:100048008501831603138801831203138801851E13
:100058002E282F2861281030831603138700831257
:1000680003138701F03094051412941683160313B2
:100078001417941774088312031393001F083F3949
:1000880040389F00831603131F129F12C330831238
:1000980003139F05831603139F13831203131F145F
:1000A8000330F300F30B56288B17831603130C1732
:1000B800831203130C130B177828183083160313B5
:1000C80087008312031387011408F0390438940059
:1000D8001412941683160313141794138C15831291
:1000E80003138C110B178B17080083120313851E3B
:1000F8007E287F289D280C1F82288328A4281F0C6F
:10010800F000700C0F39003A031D8B288C289A28B0
:100118001E08F0007008F40083160313141C9528B9
:1001280096289A28740883120313930083120C13D9
:10013800A4288C1DA028A128A428130888008C11A5
:1001480072088A00710E8300FE0E7E0E09000A12E4
:100158008A1114200A128A11831203139F18B528D2
:0E016800B628B0289F14B0280A128A110C285D
:08400000FF3FFF3FFF3FFF3FC0
:04400E00D420FF3F7C
:00000001FF
