:060000000A128A110C280F
:10000800FE00030EF1000A08F2000A128A11AF2856
:100018000A128A110F28F701F80183010A128A11BE
:1000280015280A128A1166200A128A1183120313EC
:100038009F181F28202821289F1485170430F500B1
:100048003D30F400F40B2628F50B26282B288312C4
:10005800031385137708930083160313141C35289C
:100068003628302883120313851705170430F50046
:100078003D30F400F40B3E28F50B3E28432883124C
:100088000313851305170430F5003D30F400F40B15
:100098004B28F50B4B2850288312031313088800AC
:1000A80005130230F6004530F500A930F400F40BD2
:1000B8005B28F50B5B28F60B5B2862281A280A12C6
:1000C8008A110C2801308316031788008901013032
:1000D8008316031385008312031385018316031304
:1000E8008801831203138801831603130F088F39BD
:1000F80040388F000F1410308700831203138701D4
:10010800F0309405141294168316031314179417D9
:1001180077088312031393001F083F3940389F0064
:10012800831603131F129F12C330831203139F05F4
:10013800831603139F13831203131F140330F30052
:10014800F30BA4288B17831603130C1783120313BE
:100158000C130B170800831203130C1FB428B528BF
:10016800C3281F0CF000700C0F39003A031DBD287E
:10017800BE28C2281E08F0007008F7000C138C1D5A
:10018800C628C728CA28130888008C1172088A0054
:0A019800710E8300FE0E7E0E0900BA
:08400000FF3FFF3FFF3FFF3FC0
:04400E00D420FF3F7C
:00000001FF
