:060000000A128A110C280F
:10000800FE00030EF1000A08F2000A128A11C22843
:100018000A128A110F28F60183010A128A1114287C
:100028000A128A1179200A128A11831203139F185F
:100038001E281F2824289F140330F400F40B2228BC
:100048008312031305171130F5003A30F400F40B4E
:100058002B28F50B2B28000083120313851311306E
:10006800F5003A30F400F40B3728F50B3728000078
:10007800760883120313930083160313141C452870
:10008800462840288312031385171130F5003A30AB
:10009800F400F40B4D28F50B4D28000083120313D0
:1000A80005131130F5003A30F400F40B5928F50B1C
:1000B80059280000FF30831203139300831603139B
:1000C800141C672868286228831203131308880001
:1000D8001130F5003A30F400F40B7028F50B702855
:1000E800000019280A128A110C28013083160317F8
:1000F80088008901013083160313850083120313D6
:10010800850183160313880183120313880183165C
:1001180003130F088F3940388F000F1410308700F1
:10012800831203138701F030940514129416831672
:1001380003131417941764308312031393001F08D2
:100148003F3940389F00831603131F129F12C33094
:10015800831203139F05831603139F13831203133C
:100168001F140330F300F30BB7288B178316031300
:100178000C17831203130C130B17080083120313B5
:100188000C1FC728C828D6281F0CF000700C0F3980
:10019800003A031DD028D128D5281E08F000700881
:1001A800F6000C1372088A00710E8300FE0E7E0E94
:0201B80009003C
:08400000FF3FFF3FFF3FFF3FC0
:04400E00D420FF3F7C
:00000001FF
